{
  "contractName": "IdentitySystem",
  "abi": [
    {
      "inputs": [],
      "stateMutability": "nonpayable",
      "type": "constructor"
    },
    {
      "anonymous": false,
      "inputs": [
        {
          "indexed": true,
          "internalType": "address",
          "name": "user",
          "type": "address"
        },
        {
          "indexed": false,
          "internalType": "string",
          "name": "name",
          "type": "string"
        }
      ],
      "name": "IdentityCreated",
      "type": "event"
    },
    {
      "anonymous": false,
      "inputs": [
        {
          "indexed": true,
          "internalType": "address",
          "name": "user",
          "type": "address"
        },
        {
          "indexed": true,
          "internalType": "address",
          "name": "verifier",
          "type": "address"
        }
      ],
      "name": "IdentityVerified",
      "type": "event"
    },
    {
      "inputs": [
        {
          "internalType": "address",
          "name": "",
          "type": "address"
        }
      ],
      "name": "identities",
      "outputs": [
        {
          "internalType": "string",
          "name": "name",
          "type": "string"
        },
        {
          "internalType": "string",
          "name": "dateOfBirth",
          "type": "string"
        },
        {
          "internalType": "string",
          "name": "nationality",
          "type": "string"
        },
        {
          "internalType": "bool",
          "name": "isVerified",
          "type": "bool"
        }
      ],
      "stateMutability": "view",
      "type": "function",
      "constant": true
    },
    {
      "inputs": [
        {
          "internalType": "address",
          "name": "",
          "type": "address"
        }
      ],
      "name": "verifiers",
      "outputs": [
        {
          "internalType": "bool",
          "name": "",
          "type": "bool"
        }
      ],
      "stateMutability": "view",
      "type": "function",
      "constant": true
    },
    {
      "inputs": [
        {
          "internalType": "address",
          "name": "_verifier",
          "type": "address"
        }
      ],
      "name": "registerVerifier",
      "outputs": [],
      "stateMutability": "nonpayable",
      "type": "function"
    },
    {
      "inputs": [
        {
          "internalType": "string",
          "name": "_name",
          "type": "string"
        },
        {
          "internalType": "string",
          "name": "_dob",
          "type": "string"
        },
        {
          "internalType": "string",
          "name": "_nationality",
          "type": "string"
        }
      ],
      "name": "createIdentity",
      "outputs": [],
      "stateMutability": "nonpayable",
      "type": "function"
    },
    {
      "inputs": [
        {
          "internalType": "address",
          "name": "_user",
          "type": "address"
        }
      ],
      "name": "verifyIdentity",
      "outputs": [],
      "stateMutability": "nonpayable",
      "type": "function"
    },
    {
      "inputs": [
        {
          "internalType": "address",
          "name": "_user",
          "type": "address"
        }
      ],
      "name": "getIdentity",
      "outputs": [
        {
          "internalType": "string",
          "name": "name",
          "type": "string"
        },
        {
          "internalType": "bool",
          "name": "isVerified",
          "type": "bool"
        }
      ],
      "stateMutability": "view",
      "type": "function",
      "constant": true
    }
  ],
  "bytecode": "0x608060405234801561001057600080fd5b506001806000737f94a8dfaf3e1b18d893cb5e890d47fb0f5104c773ffffffffffffffffffffffffffffffffffffffff1673ffffffffffffffffffffffffffffffffffffffff16815260200190815260200160002060006101000a81548160ff02191690831515021790555061107c8061008b6000396000f3fe608060405234801561001057600080fd5b50600436106100625760003560e01c80632fea7b8114610067578063351c4a46146100985780636c824487146100b4578063b5b90fd9146100e4578063c639e8c514610100578063f653b81e1461011c575b600080fd5b610081600480360381019061007c9190610a96565b61014f565b60405161008f929190610d67565b60405180910390f35b6100b260048036038101906100ad9190610abf565b610306565b005b6100ce60048036038101906100c99190610a96565b6104c5565b6040516100db9190610d2a565b60405180910390f35b6100fe60048036038101906100f99190610a96565b6104e5565b005b61011a60048036038101906101159190610a96565b610747565b005b61013660048036038101906101319190610a96565b6107a1565b6040516101469493929190610d97565b60405180910390f35b606060008060008473ffffffffffffffffffffffffffffffffffffffff1673ffffffffffffffffffffffffffffffffffffffff16815260200190815260200160002060030160009054906101000a900460ff166101e1576040517f08c379a00000000000000000000000000000000000000000000000000000000081526004016101d890610df1565b60405180910390fd5b6000808473ffffffffffffffffffffffffffffffffffffffff1673ffffffffffffffffffffffffffffffffffffffff1681526020019081526020016000206000016000808573ffffffffffffffffffffffffffffffffffffffff1673ffffffffffffffffffffffffffffffffffffffff16815260200190815260200160002060030160009054906101000a900460ff1681805461027d90610f8e565b80601f01602080910402602001604051908101604052809291908181526020018280546102a990610f8e565b80156102f65780601f106102cb576101008083540402835291602001916102f6565b820191906000526020600020905b8154815290600101906020018083116102d957829003601f168201915b5050505050915091509150915091565b60008060003373ffffffffffffffffffffffffffffffffffffffff1673ffffffffffffffffffffffffffffffffffffffff168152602001908152602001600020600001805461035490610f8e565b905014610396576040517f08c379a000000000000000000000000000000000000000000000000000000000815260040161038d90610e11565b60405180910390fd5b6040518060800160405280848152602001838152602001828152602001600015158152506000803373ffffffffffffffffffffffffffffffffffffffff1673ffffffffffffffffffffffffffffffffffffffff1681526020019081526020016000206000820151816000019080519060200190610414929190610976565b506020820151816001019080519060200190610431929190610976565b50604082015181600201908051906020019061044e929190610976565b5060608201518160030160006101000a81548160ff0219169083151502179055509050503373ffffffffffffffffffffffffffffffffffffffff167fc935904fde3b784f003631fba58f14c99e3135ec5e11d22997ff5aca198f9474846040516104b89190610d45565b60405180910390a2505050565b60016020528060005260406000206000915054906101000a900460ff1681565b600160003373ffffffffffffffffffffffffffffffffffffffff1673ffffffffffffffffffffffffffffffffffffffff16815260200190815260200160002060009054906101000a900460ff16610571576040517f08c379a000000000000000000000000000000000000000000000000000000000815260040161056890610e51565b60405180910390fd5b60008060008373ffffffffffffffffffffffffffffffffffffffff1673ffffffffffffffffffffffffffffffffffffffff16815260200190815260200160002060000180546105bf90610f8e565b905011610601576040517f08c379a00000000000000000000000000000000000000000000000000000000081526004016105f890610e31565b60405180910390fd5b6000808273ffffffffffffffffffffffffffffffffffffffff1673ffffffffffffffffffffffffffffffffffffffff16815260200190815260200160002060030160009054906101000a900460ff1615610690576040517f08c379a000000000000000000000000000000000000000000000000000000000815260040161068790610e71565b60405180910390fd5b60016000808373ffffffffffffffffffffffffffffffffffffffff1673ffffffffffffffffffffffffffffffffffffffff16815260200190815260200160002060030160006101000a81548160ff0219169083151502179055503373ffffffffffffffffffffffffffffffffffffffff168173ffffffffffffffffffffffffffffffffffffffff167f25e4589528aa4c1dcd5c91ab0cc06e99d962229fb9e54162702032772a1655a060405160405180910390a350565b60018060008373ffffffffffffffffffffffffffffffffffffffff1673ffffffffffffffffffffffffffffffffffffffff16815260200190815260200160002060006101000a81548160ff02191690831515021790555050565b60006020528060005260406000206000915090508060000180546107c490610f8e565b80601f01602080910402602001604051908101604052809291908181526020018280546107f090610f8e565b801561083d5780601f106108125761010080835404028352916020019161083d565b820191906000526020600020905b81548152906001019060200180831161082057829003601f168201915b50505050509080600101805461085290610f8e565b80601f016020809104026020016040519081016040528092919081815260200182805461087e90610f8e565b80156108cb5780601f106108a0576101008083540402835291602001916108cb565b820191906000526020600020905b8154815290600101906020018083116108ae57829003601f168201915b5050505050908060020180546108e090610f8e565b80601f016020809104026020016040519081016040528092919081815260200182805461090c90610f8e565b80156109595780601f1061092e57610100808354040283529160200191610959565b820191906000526020600020905b81548152906001019060200180831161093c57829003601f168201915b5050505050908060030160009054906101000a900460ff16905084565b82805461098290610f8e565b90600052602060002090601f0160209004810192826109a457600085556109eb565b82601f106109bd57805160ff19168380011785556109eb565b828001600101855582156109eb579182015b828111156109ea5782518255916020019190600101906109cf565b5b5090506109f891906109fc565b5090565b5b80821115610a155760008160009055506001016109fd565b5090565b6000610a2c610a2784610ec2565b610e91565b905082815260208101848484011115610a4457600080fd5b610a4f848285610f4c565b509392505050565b600081359050610a668161102f565b92915050565b600082601f830112610a7d57600080fd5b8135610a8d848260208601610a19565b91505092915050565b600060208284031215610aa857600080fd5b6000610ab684828501610a57565b91505092915050565b600080600060608486031215610ad457600080fd5b600084013567ffffffffffffffff811115610aee57600080fd5b610afa86828701610a6c565b935050602084013567ffffffffffffffff811115610b1757600080fd5b610b2386828701610a6c565b925050604084013567ffffffffffffffff811115610b4057600080fd5b610b4c86828701610a6c565b9150509250925092565b610b5f81610f20565b82525050565b6000610b7082610ef2565b610b7a8185610efd565b9350610b8a818560208601610f5b565b610b938161101e565b840191505092915050565b6000610bab602883610efd565b91507f4964656e74697479206e6f74207665726966696564206f7220646f6573206e6f60008301527f742065786973742e0000000000000000000000000000000000000000000000006020830152604082019050919050565b6000610c11601883610efd565b91507f4964656e7469747920616c7265616479206578697374732e00000000000000006000830152602082019050919050565b6000610c51601883610efd565b91507f4964656e7469747920646f6573206e6f742065786973742e00000000000000006000830152602082019050919050565b6000610c91602683610efd565b91507f4f6e6c79207665726966696572732063616e2063616c6c20746869732066756e60008301527f6374696f6e2e00000000000000000000000000000000000000000000000000006020830152604082019050919050565b6000610cf7601a83610efd565b91507f4964656e7469747920616c72656164792076657269666965642e0000000000006000830152602082019050919050565b6000602082019050610d3f6000830184610b56565b92915050565b60006020820190508181036000830152610d5f8184610b65565b905092915050565b60006040820190508181036000830152610d818185610b65565b9050610d906020830184610b56565b9392505050565b60006080820190508181036000830152610db18187610b65565b90508181036020830152610dc58186610b65565b90508181036040830152610dd98185610b65565b9050610de86060830184610b56565b95945050505050565b60006020820190508181036000830152610e0a81610b9e565b9050919050565b60006020820190508181036000830152610e2a81610c04565b9050919050565b60006020820190508181036000830152610e4a81610c44565b9050919050565b60006020820190508181036000830152610e6a81610c84565b9050919050565b60006020820190508181036000830152610e8a81610cea565b9050919050565b6000604051905081810181811067ffffffffffffffff82111715610eb857610eb7610fef565b5b8060405250919050565b600067ffffffffffffffff821115610edd57610edc610fef565b5b601f19601f8301169050602081019050919050565b600081519050919050565b600082825260208201905092915050565b6000610f1982610f2c565b9050919050565b60008115159050919050565b600073ffffffffffffffffffffffffffffffffffffffff82169050919050565b82818337600083830152505050565b60005b83811015610f79578082015181840152602081019050610f5e565b83811115610f88576000848401525b50505050565b60006002820490506001821680610fa657607f821691505b60208210811415610fba57610fb9610fc0565b5b50919050565b7f4e487b7100000000000000000000000000000000000000000000000000000000600052602260045260246000fd5b7f4e487b7100000000000000000000000000000000000000000000000000000000600052604160045260246000fd5b6000601f19601f8301169050919050565b61103881610f0e565b811461104357600080fd5b5056fea2646970667358221220c4953c0d7a8993731b8e695881bad1ca57b6faff96a3e685458fa2f9286d373964736f6c63430008000033",
  "immutableReferences": {},
  "source": "// SPDX-License-Identifier: MIT\r\n\r\npragma solidity ^0.8.0;\r\nimport \"./ConvertLib.sol\";\r\n\r\ncontract IdentitySystem {\r\n\r\n    struct Identity {\r\n        string name;\r\n        string dateOfBirth;\r\n        string nationality;\r\n        bool isVerified;\r\n    }\r\n\r\n    mapping(address => Identity) public identities;\r\n    mapping(address => bool) public verifiers;\r\n\r\n    event IdentityCreated(address indexed user, string name);\r\n    event IdentityVerified(address indexed user, address indexed verifier);\r\n\r\n    constructor() {\r\n        //     \r\n        verifiers[0x7f94a8dFaf3e1b18D893CB5e890d47Fb0f5104C7] = true;\r\n    }\r\n\r\n    modifier onlyVerifier() {\r\n        require(verifiers[msg.sender], \"Only verifiers can call this function.\");\r\n        _;\r\n    }\r\n\r\n    function registerVerifier(address _verifier) public {\r\n        verifiers[_verifier] = true;\r\n    }\r\n\r\n    function createIdentity(string memory _name, string memory _dob, string memory _nationality) public {\r\n        require(bytes(identities[msg.sender].name).length == 0, \"Identity already exists.\");\r\n\r\n        identities[msg.sender] = Identity(_name, _dob, _nationality, false);\r\n        emit IdentityCreated(msg.sender, _name);\r\n    }\r\n\r\n    function verifyIdentity(address _user) public onlyVerifier {\r\n        require(bytes(identities[_user].name).length > 0, \"Identity does not exist.\");\r\n        require(!identities[_user].isVerified, \"Identity already verified.\");\r\n\r\n        identities[_user].isVerified = true;\r\n        emit IdentityVerified(_user, msg.sender);\r\n    }\r\n\r\n    function getIdentity(address _user) public view returns (string memory name, bool isVerified) {\r\n        require(identities[_user].isVerified, \"Identity not verified or does not exist.\");\r\n\r\n        return (identities[_user].name, identities[_user].isVerified);\r\n    }\r\n}\r\n",
  "sourcePath": "D:\\projects\\boxes\\contracts\\identitySystem.sol",
  "compiler": {
    "name": "solc",
    "version": "0.8.0+commit.c7dfd78e.Emscripten.clang"
  },
  "schemaVersion": "3.4.16",
  "updatedAt": "2023-11-08T02:25:03.854Z",
  "networkType": "ethereum",
  "devdoc": {
    "kind": "dev",
    "methods": {},
    "version": 1
  },
  "userdoc": {
    "kind": "user",
    "methods": {},
    "version": 1
  }
}